:1000000000308A003F280000FF30831685008312ED
:1000100005088039AE00AE08031D1028B030AB00D3
:10002000FF3083168600831206088039AE00AE08C2
:10003000031D1C28B030AC00FF30B00083168700D1
:10004000831207088039AE00AE08031D2928B0309E
:10005000AD008A11602831308400000803193D2862
:100060000630A100A001A00B3328A10B32287B3061
:10007000A000A00B3928800B30288A117028840139
:100080001F308305073083169F00073083129F00BF
:10009000FF30B000803083168500803086008030CD
:1000A00087008312B000A501A601A501A801A9013E
:1000B000AA01F030AB00F030AC00F030AD00042805
:1000C00000308316860083122C0886000030B000B2
:1000D0008316870083122D0887006430B1002B2817
:0600E000AF0A5F28630077
:02400E007A3FF7
:00000001FF
;PIC16F873A
