:1000000000308A000428000084011F308305073077
:1000100083169F00073083129F00FF30B0008030AE
:100020008316850080308600803087008312B00000
:10003000A501A601A701A801A901AA01EF30AB0003
:10004000EF30AC00EF30AD007E30AB057E30AC055C
:100050007E30AD05003083168500FF3083128500A9
:10006000003083168600FF30831286000030B00017
:1000700083168700FF3083128700FF3083168500C8
:10008000831205080039003A03194C280030831602
:1000900085003F3083128500FF308316860083126F
:1000A00006080039003A03195B28003083168600E1
:1000B0003F3083128600FF30B00083168700831222
:1000C00007080039003A03196C280030B000831685
:0C00D00087003F30831287003D2863004A
:02400E007A3FF7
:00000001FF
;PIC16F873A
