:1000000000308A00992800003208A101310203184B
:100010000C283108A0001828A0010830B300B10D49
:10002000A00D320820020318A000A10DB30B0F2869
:100030000034FF3083168500831205088039AE0036
:10004000AE08031D25280130A500FF308316860069
:10005000831206088039AE00AE08031D3128013036
:10006000A600FF30B000831687008312070880398E
:10007000AE00AE08031D3E280130A700A5080319F5
:1000800055282F08B1000530B2000420A008031D38
:100090004A28A80A2808073C031850280130A8005D
:1000A000280EAB00F030AB05AB09A60803196C288D
:1000B0002F08B1000530B2000420A008031D6128FC
:1000C000A90A2908073C031867280130A900290E4E
:1000D000AC00F030AC05AC09A708031983282F0841
:1000E000B1000530B2000420A008031D7828AA0A38
:1000F0002A08073C03187E280130AA002A0EAD000A
:10010000F030AD05AD098A11BA28313084000008FD
:10011000031997280630A100A001A00B8D28A10B80
:100120008C287B30A000A00B9328800B8A288A1192
:10013000CA2884011F308305073083169F000730CB
:1001400083129F00FF30B00080308316850080301E
:100150008600803087008312B000A501A601A501AA
:10016000A801A901AA01B030AB00B030AC00B0309A
:10017000AD00192800308316860083122C088600F3
:100180000030B0008316870083122D08870064308A
:0A019000B1008528AF0AB92863000A
:02400E007A3FF7
:00000001FF
;PIC16F873A
