:1000000000308A00992800003208A101310203184B
:100010000C283108A0001828A0010830B300B10D49
:10002000A00D320820020318A000A10DB30B0F2869
:100030000034FF3083168500831205080139AE00B5
:10004000AE08031925280130A500FF30831686006D
:10005000831206080139AE00AE08031931280130B9
:10006000A600FF30B000831687008312070801390D
:10007000AE00AE0803193E280130A700A5080319F9
:1000800055282F08B1000530B2000420A008031D38
:100090004A28A80A2808073C031850280130A8005D
:1000A0000310280DAB00AB16AB09A60803196C288A
:1000B0002F08B1000530B2000420A008031D6128FC
:1000C000A90A2908073C031867280130A900031072
:1000D000290DAC00AC16AC09A708031983282F081A
:1000E000B1000530B2000420A008031D7828AA0A38
:1000F0002A08073C03187E280130AA0003102A0DA5
:10010000AD00AD16AD098A11CC283130840000084D
:10011000031997280630A100A001A00B8D28A10B80
:100120008C287B30A000A00B9328800B8A288A1192
:10013000DC2884011F308305073083169F000730B9
:1001400083129F00FF30B00001308316850081309C
:100150008600813087008312B000A501A601A501A9
:10016000A801A901AA01EF30AB00EF30AC00EF30DD
:10017000AD007E30AB057E30AC057E30AD05FF3086
:1001800083168600831206080039003A0319CB282B
:10019000A501A601A5011928003083168600831247
:1001A0002C0886000030B0008316870083122D08CB
:0E01B00087006430B1008528AF0ABF286300C5
:02400E007A3FF7
:00000001FF
;PIC16F873A
